{
  "_format": "hh-sol-artifact-1",
  "contractName": "Lottery",
  "sourceName": "contracts/Lottery.sol",
  "abi": [
    {
      "inputs": [],
      "stateMutability": "payable",
      "type": "constructor"
    },
    {
      "anonymous": false,
      "inputs": [
        {
          "indexed": false,
          "internalType": "address",
          "name": "player",
          "type": "address"
        },
        {
          "indexed": false,
          "internalType": "uint256",
          "name": "playersNumber",
          "type": "uint256"
        }
      ],
      "name": "AddPlayers",
      "type": "event"
    },
    {
      "anonymous": false,
      "inputs": [
        {
          "indexed": false,
          "internalType": "address",
          "name": "winner",
          "type": "address"
        },
        {
          "indexed": false,
          "internalType": "uint256",
          "name": "amountWon",
          "type": "uint256"
        }
      ],
      "name": "Winner",
      "type": "event"
    },
    {
      "inputs": [
        {
          "internalType": "address payable",
          "name": "lotteryPlayer",
          "type": "address"
        }
      ],
      "name": "addPlayers",
      "outputs": [
        {
          "internalType": "bool",
          "name": "",
          "type": "bool"
        }
      ],
      "stateMutability": "payable",
      "type": "function"
    },
    {
      "inputs": [],
      "name": "lotteryPrice",
      "outputs": [
        {
          "internalType": "uint256",
          "name": "",
          "type": "uint256"
        }
      ],
      "stateMutability": "view",
      "type": "function"
    },
    {
      "inputs": [],
      "name": "owner",
      "outputs": [
        {
          "internalType": "address payable",
          "name": "",
          "type": "address"
        }
      ],
      "stateMutability": "view",
      "type": "function"
    },
    {
      "inputs": [],
      "name": "pickWiner",
      "outputs": [
        {
          "internalType": "address",
          "name": "",
          "type": "address"
        },
        {
          "internalType": "uint256",
          "name": "",
          "type": "uint256"
        }
      ],
      "stateMutability": "payable",
      "type": "function"
    },
    {
      "inputs": [
        {
          "internalType": "uint256",
          "name": "",
          "type": "uint256"
        }
      ],
      "name": "playersList",
      "outputs": [
        {
          "internalType": "address",
          "name": "",
          "type": "address"
        }
      ],
      "stateMutability": "view",
      "type": "function"
    }
  ],
  "bytecode": "0x60806040526706f05b59d3b20000600080549050601b9190609c565b60025533600160006101000a81548173ffffffffffffffffffffffffffffffffffffffff021916908373ffffffffffffffffffffffffffffffffffffffff16021790555060d5565b6000819050919050565b7f4e487b7100000000000000000000000000000000000000000000000000000000600052601160045260246000fd5b600060a5826063565b915060ae836063565b925082820260ba816063565b9150828204841483151760ce5760cd606d565b5b5092915050565b610b14806100e46000396000f3fe60806040526004361061004a5760003560e01c80637319b43e1461004f5780638da5cb5b1461008c578063a0d249cc146100b7578063a97ed232146100e7578063dbea52d814610106575b600080fd5b34801561005b57600080fd5b50610076600480360381019061007191906105d1565b610131565b604051610083919061063f565b60405180910390f35b34801561009857600080fd5b506100a1610170565b6040516100ae919061067b565b60405180910390f35b6100d160048036038101906100cc91906106c2565b610196565b6040516100de919061070a565b60405180910390f35b6100ef6103d9565b6040516100fd929190610734565b60405180910390f35b34801561011257600080fd5b5061011b610590565b604051610128919061075d565b60405180910390f35b6000818154811061014157600080fd5b906000526020600020016000915054906101000a900473ffffffffffffffffffffffffffffffffffffffff1681565b600160009054906101000a900473ffffffffffffffffffffffffffffffffffffffff1681565b60006706f05b59d3b200003410156101e3576040517f08c379a00000000000000000000000000000000000000000000000000000000081526004016101da906107fb565b60405180910390fd5b600160009054906101000a900473ffffffffffffffffffffffffffffffffffffffff1673ffffffffffffffffffffffffffffffffffffffff166108fc6706f05b59d3b200009081150290604051600060405180830381858888f19350505050158015610253573d6000803e3d6000fd5b50600060405180604001604052808473ffffffffffffffffffffffffffffffffffffffff1681526020018473ffffffffffffffffffffffffffffffffffffffff163181525090506000839080600181540180825580915050600190039060005260206000200160009091909190916101000a81548173ffffffffffffffffffffffffffffffffffffffff021916908373ffffffffffffffffffffffffffffffffffffffff16021790555080600360008573ffffffffffffffffffffffffffffffffffffffff1673ffffffffffffffffffffffffffffffffffffffff16815260200190815260200160002060008201518160000160006101000a81548173ffffffffffffffffffffffffffffffffffffffff021916908373ffffffffffffffffffffffffffffffffffffffff160217905550602082015181600101559050507f707554343ccda6a95560c92a29daeabb253f16cbbf99d2d75584c80a81b3ca64836000805490506040516103c792919061087a565b60405180910390a16001915050919050565b6000803373ffffffffffffffffffffffffffffffffffffffff16600160009054906101000a900473ffffffffffffffffffffffffffffffffffffffff1673ffffffffffffffffffffffffffffffffffffffff161461046c576040517f08c379a0000000000000000000000000000000000000000000000000000000008152600401610463906108ef565b60405180910390fd5b6000414233604051602001610483939291906109a1565b6040516020818303038152906040528051906020012060001c90506000808054905042836104b19190610a0d565b6104bb9190610a6d565b905060008082815481106104d2576104d1610aaf565b5b9060005260206000200160009054906101000a900473ffffffffffffffffffffffffffffffffffffffff1690508073ffffffffffffffffffffffffffffffffffffffff166108fc6002549081150290604051600060405180830381858888f19350505050158015610547573d6000803e3d6000fd5b507f9c2270628a9b29d30ae96b6c4c14ed646ee134febdce38a5b77f2bde9cea2e208160025460405161057b92919061087a565b60405180910390a18082945094505050509091565b60025481565b600080fd5b6000819050919050565b6105ae8161059b565b81146105b957600080fd5b50565b6000813590506105cb816105a5565b92915050565b6000602082840312156105e7576105e6610596565b5b60006105f5848285016105bc565b91505092915050565b600073ffffffffffffffffffffffffffffffffffffffff82169050919050565b6000610629826105fe565b9050919050565b6106398161061e565b82525050565b60006020820190506106546000830184610630565b92915050565b6000610665826105fe565b9050919050565b6106758161065a565b82525050565b6000602082019050610690600083018461066c565b92915050565b61069f8161065a565b81146106aa57600080fd5b50565b6000813590506106bc81610696565b92915050565b6000602082840312156106d8576106d7610596565b5b60006106e6848285016106ad565b91505092915050565b60008115159050919050565b610704816106ef565b82525050565b600060208201905061071f60008301846106fb565b92915050565b61072e8161059b565b82525050565b60006040820190506107496000830185610630565b6107566020830184610725565b9392505050565b60006020820190506107726000830184610725565b92915050565b600082825260208201905092915050565b7f696e73756666696369656e742062616c616e636520746f20656e74657220746860008201527f6520647261770000000000000000000000000000000000000000000000000000602082015250565b60006107e5602683610778565b91506107f082610789565b604082019050919050565b60006020820190508181036000830152610814816107d8565b9050919050565b6000819050919050565b600061084061083b610836846105fe565b61081b565b6105fe565b9050919050565b600061085282610825565b9050919050565b600061086482610847565b9050919050565b61087481610859565b82525050565b600060408201905061088f600083018561086b565b61089c6020830184610725565b9392505050565b7f796f75206d75737420626520746865206f776e65720000000000000000000000600082015250565b60006108d9601583610778565b91506108e4826108a3565b602082019050919050565b60006020820190508181036000830152610908816108cc565b9050919050565b60008160601b9050919050565b60006109278261090f565b9050919050565b60006109398261091c565b9050919050565b61095161094c8261065a565b61092e565b82525050565b6000819050919050565b61097261096d8261059b565b610957565b82525050565b60006109838261091c565b9050919050565b61099b6109968261061e565b610978565b82525050565b60006109ad8286610940565b6014820191506109bd8285610961565b6020820191506109cd828461098a565b601482019150819050949350505050565b7f4e487b7100000000000000000000000000000000000000000000000000000000600052601260045260246000fd5b6000610a188261059b565b9150610a238361059b565b925082610a3357610a326109de565b5b828206905092915050565b7f4e487b7100000000000000000000000000000000000000000000000000000000600052601160045260246000fd5b6000610a788261059b565b9150610a838361059b565b9250828202610a918161059b565b91508282048414831517610aa857610aa7610a3e565b5b5092915050565b7f4e487b7100000000000000000000000000000000000000000000000000000000600052603260045260246000fdfea2646970667358221220dd261c75c70e66fab85ec735105491b18dd1e956c1124cf9f493fc234e97f44e64736f6c634300081c0033",
  "linkReferences": {},
  "deployedLinkReferences": {}
}